:100000000C945D000C9485000C9485000C94850084
:100010000C9485000C9485000C9485000C9485004C
:100020000C9485000C9485000C9485000C94660358
:100030000C9485000C9485000C9485000C9485002C
:100040000C941C030C9485000C94EA020C94C402DA
:100050000C9485000C9485000C9485000C9485000C
:100060000C9485000C94850000000008000201003B
:100070000003040700000000000000000000000072
:10008000250028002B0000000000240027002A0083
:10009000040404040404040402020202020203032E
:1000A0000303030301020408102040800102040836
:1000B0001020010204081020220411241FBECFEFDB
:1000C000D8E0DEBFCDBF11E0A0E0B1E0E0E3FEE0AC
:1000D00002C005900D92A631B107D9F721E0A6E143
:1000E000B1E001C01D92A83EB207E1F710E0CDE5F6
:1000F000D0E004C02197FE010E941007CC35D10743
:10010000C9F70E9499040C9416070C94000090E023
:10011000FC01EC55FF4F249180579F4FFC018491C7
:10012000882399F090E0880F991FFC01EA57FF4F50
:10013000A591B491FC01E458FF4F859194918FB73C
:10014000F894EC91E22BEC938FBF0895AF92BF929D
:10015000CF92DF92EF92FF920F931F93CF93DF9393
:100160006C017B018B01040F151FEB015E01AE18C2
:10017000BF08C017D10759F06991D601ED91FC91E4
:100180000190F081E02DC6010995892B79F7C50111
:10019000DF91CF911F910F91FF90EF90DF90CF9063
:1001A000BF90AF900895FC01538D448D252F30E012
:1001B000842F90E0821B930B541710F0CF96089574
:1001C00001970895FC01918D828D981761F0A28DA1
:1001D000AE0FBF2FB11D5D968C91928D9F5F9F7367
:1001E000928F90E008958FEF9FEF0895FC01918D1D
:1001F000828D981731F0828DE80FF11D858D90E08A
:1002000008958FEF9FEF0895FC01918D228D892F26
:1002100090E0805C9F4F821B91098F73992708950E
:1002200080E291E00E94040121E0892B09F420E0A2
:10023000822F089580E090E0892B29F00E94100120
:1002400081110C9400000895FC01A48DA80FB92F12
:10025000B11DA35ABF4F2C91848D90E001968F73EE
:100260009927848FA689B7892C93A089B1898C910D
:10027000837080648C93938D848D981306C002885C
:10028000F389E02D80818F7D80830895EF92FF9226
:100290000F931F93CF93DF93EC0181E0888F9B8DA9
:1002A0008C8D98131AC0E889F989808185FF15C063
:1002B0009FB7F894EE89FF896083E889F989808186
:1002C0008370806480839FBF81E090E0DF91CF9155
:1002D0001F910F91FF90EF900895F62E0B8D10E077
:1002E0000F5F1F4F0F731127E02E8C8D8E110CC0E6
:1002F0000FB607FCFACFE889F989808185FFF5CF31
:10030000CE010E942401F1CFEB8DEC0FFD2FF11DEA
:10031000E35AFF4FF0829FB7F8940B8FEA89FB896D
:1003200080818062CFCFCF93DF93EC01888D8823CB
:10033000B9F0AA89BB89E889F9898C9185FD03C048
:10034000808186FD0DC00FB607FCF7CF8C9185FF2D
:10035000F2CF808185FFEDCFCE010E942401E9CF4D
:10036000DF91CF91089590E0FC01E859FF4F24916F
:10037000FC01EC55FF4F3491FC01E057FF4FE49135
:10038000EE23C9F0222339F0233001F1A8F4213003
:1003900019F1223029F1F0E0EE0FFF1FE458FF4F72
:1003A000A591B4918FB7F894EC91611126C0309566
:1003B0003E233C938FBF08952730A9F02830C9F021
:1003C000243049F7809180008F7D03C080918000A8
:1003D0008F7780938000DFCF84B58F7784BDDBCFAC
:1003E00084B58F7DFBCF8091B0008F778093B00074
:1003F000D2CF8091B0008F7DF9CF3E2BDACF8E50D7
:10040000806480937C0080917A00806480937A007D
:1004100080917A0086FDFCCF8091780090917900E0
:1004200008953FB7F89480911C0190911D01A0910F
:100430001E01B0911F0126B5A89B05C02F3F19F0E2
:100440000196A11DB11D3FBFBA2FA92F982F882754
:10045000BC01CD01620F711D811D911D42E0660F2F
:10046000771F881F991F4A95D1F70895CF92DF9281
:10047000EF92FF92CF93DF93EC01603282E0780736
:10048000CCF5653B710514F064EB70E0898128E8D8
:1004900030E0281B310987FD3395220F331F220FCF
:1004A000331F6901330FEE08FF088A8128E532E027
:1004B000281B310987FD3395220F331F220F331F6D
:1004C000032E000C440B550B2C193D094E095F09F6
:1004D000DB0177FF02C0B0E0A0E00E94C40624EB7D
:1004E00030E040E050E00E949A06C20ED31EE41EA7
:1004F000F51EB601E881EC3070F5298188E890E0BE
:10050000821B910927FD9395880F991F880F991FCA
:10051000681779077CF02A8188E592E0821B9109AF
:1005200027FD9395880F991F880F991F68177907E2
:100530000CF4CB010297880F991F4FB7F8942E2F18
:1005400030E0F901EE0FFF1FE20FF31FE354FE4FFF
:10055000928381834FBFDF91CF91FF90EF90DF9027
:10056000CF900895892B79F41092800082E08093D7
:1005700081001092850010928400B19A80916F00E2
:10058000826080936F0008951F920F920FB60F92B2
:1005900011242F933F934F935F936F937F938F9388
:1005A0009F93AF93BF93EF93FF9380E291E00E94FC
:1005B0002401FF91EF91BF91AF919F918F917F9116
:1005C0006F915F914F913F912F910F900FBE0F90C0
:1005D0001F9018951F920F920FB60F9211242F9310
:1005E0008F939F93EF93FF93E0913001F09131014E
:1005F0008081E0913601F091370182FD1BC090812E
:10060000809139018F5F8F7320913A01821741F0F9
:10061000E0913901F0E0E05EFE4F958F8093390163
:10062000FF91EF919F918F912F910F900FBE0F909F
:100630001F9018958081F4CF1F920F920FB60F92E2
:1006400011242F933F938F939F93AF93BF938091E8
:10065000180190911901A0911A01B0911B013091DC
:10066000170123E0230F2D3758F50196A11DB11D69
:10067000209317018093180190931901A0931A01F8
:10068000B0931B0180911C0190911D01A0911E014E
:10069000B0911F010196A11DB11D80931C01909383
:1006A0001D01A0931E01B0931F01BF91AF919F91B7
:1006B0008F913F912F910F900FBE0F901F90189523
:1006C00026E8230F0296A11DB11DD2CF1F920F92D3
:1006D0000FB60F9211242F933F934F935F936F9315
:1006E0007F938F939F93AF93BF93CF93DF93EF93BA
:1006F000FF9380911601C091E101D0E087FF24C0F3
:100700001092850010928400809116018F5F809373
:10071000160180911601082E000C990B8C179D076D
:1007200024F4809116018C30C4F180918400909162
:100730008500049680349C4908F47AC08091840036
:1007400090918500049676C080911601082E000CC9
:10075000990B8C179D07C4F6E09116018E2FEE0FB2
:10076000990BFC01EE0FFF1FE80FF91FE354FE4F3A
:10077000808186FFC9CFE09116018E2FEE0F990B75
:10078000FC01EE0FFF1FE80FF91FE354FE4F8081BD
:1007900060E08F730E94B301B7CF20918400309145
:1007A0008500E09116018E2FEE0F990BFC01EE0FE4
:1007B000FF1FE80FF91FE354FE4F81819281820FE2
:1007C000931F9093890080938800E09116018E2FEB
:1007D000EE0F990BFC01EE0FFF1FE80FF91FE3541A
:1007E000FE4F808186FF11C0E09116018E2FEE0F23
:1007F000990BFC01EE0FFF1FE80FF91FE354FE4FAA
:10080000808161E08F730E94B301FF91EF91DF91CE
:10081000CF91BF91AF919F918F917F916F915F9198
:100820004F913F912F910F900FBE0F901F901895F1
:1008300080E49CE990938900809388008FEF8093F7
:100840001601E3CF109223011092220188EE93E06B
:10085000A0E0B0E08093240190932501A0932601AD
:10086000B093270188E091E09093210180932001CB
:1008700085EC90E090932D0180932C0184EC90E026
:1008800090932F0180932E0180EC90E090933101A2
:100890008093300181EC90E090933301809332019A
:1008A00082EC90E0909335018093340186EC90E0E7
:1008B00090933701809336011092390110923A01DA
:1008C00010923B0110923C018091E1018C3048F57F
:1008D00091E0980F9093E1018093E50190E0FC0195
:1008E000EE0FFF1FE80FF91FE354FE4F88EB9BE06C
:1008F000928381838091E1018C30B8F491E0980F6C
:100900009093E1018093E20190E0FC01EE0FFF1F64
:10091000E80FF91FE354FE4F88EB9BE0928381833D
:1009200008958FEF8093E501E5CF8FEF8093E2018B
:100930000895789484B5826084BD84B5816084BD57
:1009400085B5826085BD85B5816085BD80916E006D
:10095000816080936E00109281008091810082609E
:1009600080938100809181008160809381008091DB
:1009700080008160809380008091B10084608093CA
:10098000B1008091B00081608093B00080917A00C6
:10099000846080937A0080917A00826080937A00EC
:1009A00080917A00816080937A0080917A008068DB
:1009B00080937A001092C100E0913001F0913101F2
:1009C00082E08083E0912C01F0912D011082E09172
:1009D0002E01F0912F018FEC808310923801E0916D
:1009E0003401F091350186E08083E0913201F0918D
:1009F0003301808180618083E0913201F091330185
:100A0000808188608083E0913201F09133018081A0
:100A100080688083E0913201F091330180818F7D85
:100A200080838091E5018C3008F042C082E00E9412
:100A300087008091E501282F30E0F901EE0FFF1FBC
:100A4000E20FF31FE354FE4F9081907C92609083FD
:100A50001092E6011092E7012CE0622F0E94FD0641
:100A600090E0829FB001112430E020E0AB01420F02
:100A7000531FFA01EE0FFF1FE40FF51FE354FE4F63
:100A8000408146FD07C02F5F3F4F2C30310571F785
:100A90000E94B202E091E5018E2F90E0FC01EE0F82
:100AA000FF1FE80FF91FE354FE4F808180648083AD
:100AB0008091E2018C3008F042C083E00E94870000
:100AC0008091E201282F30E0F901EE0FFF1FE20FC5
:100AD000F31FE354FE4F9081907C936090831092BB
:100AE000E3011092E4012CE0622F0E94FD0690E0E9
:100AF000829FB001112430E020E0AB01420F531F70
:100B0000FA01EE0FFF1FE40FF51FE354FE4F408183
:100B100046FD07C02F5F3F4F2C30310571F70E9413
:100B2000B202E091E2018E2F90E0FC01EE0FFF1F78
:100B3000E80FF91FE354FE4F8081806480834424D2
:100B40004A9493E0592E612C712C20E0222E20E053
:100B5000322E8EE00E94FF015C018FE00E94FF01B7
:100B600029E030E0DC010E940907A30192010E9404
:100B70009A062F5F3F4F4F4F5F4F790180E10E94F0
:100B8000FF0129E030E0DC010E940907A301920186
:100B90000E949A0689019A010F5F1F4F2F4F3F4F06
:100BA00081E10E94FF0129E030E0DC010E94090799
:100BB000A30192010E949A062F5F3F4F4F4F5F4F54
:100BC000E90129E030E0D5010E940907A301920163
:100BD0000E949A062F5F3F4F4F4F5F4F26303105DF
:100BE000C4F48091020190910301843B91052CF49F
:100BF00001969093030180930201809100019091EE
:100C00000101843B91052CF401969093010180939E
:100C1000000126E0E216F104C4F4809102019091F3
:100C20000301181619062CF4019790930301809381
:100C300002018091000190910101843B91052CF407
:100C40000196909301018093000106301105C4F4D0
:100C50008091020190910301181619062CF4019756
:100C60009093030180930201809100019091010112
:100C7000181619062CF40197909301018093000136
:100C80002697C4F48091020190910301843B910561
:100C90002CF401969093030180930201809100014E
:100CA00090910101181619062CF4019790930101F7
:100CB00080930001609102017091030185EE91E043
:100CC0000E943602609100017091010182EE91E074
:100CD0000E9436020E9411024B015C0185E0C82E81
:100CE000D12CE12CF12C0E941102681979098A0992
:100CF0009B09683E734081059105A8F381E0C81AFD
:100D0000D108E108F10828EE820E23E0921EA11C12
:100D1000B11CC114D104E104F10429F721143104F8
:100D200009F417CF0E941001882309F412CF0E9402
:100D300000000FCF052E97FB1EF400940E94B10611
:100D400057FD07D00E94CC0607FC03D04EF40C944C
:100D5000B10650954095309521953F4F4F4F5F4FCD
:100D6000089590958095709561957F4F8F4F9F4F17
:100D700008950E94EE06A59F900DB49F900DA49F2C
:100D8000800D911D11240895B7FF0C94B9060E949F
:100D9000B906821B930B0895A1E21A2EAA1BBB1B56
:100DA000FD010DC0AA1FBB1FEE1FFF1FA217B30737
:100DB000E407F50720F0A21BB30BE40BF50B661F4D
:100DC000771F881F991F1A9469F760957095809511
:100DD00090959B01AC01BD01CF010895A29FB00188
:100DE000B39FC001A39F700D811D1124911DB29F5F
:100DF000700D811D1124911D0895991B79E004C087
:100E0000991F961708F0961B881F7A95C9F7809549
:100E100008950E94EE06B7FF0895821B930B089574
:100E2000EE0FFF1F0590F491E02D0994F894FFCF89
:100E300046005A00000000004601A600D3009301BE
:060E40000401E200F600CF
:00000001FF
